:020000040000FA
:06040000BDEF02F0114700
:08040800D9CF01F0DACF02F0B8
:10041000F2B413EF02F09EBA45EF02F001C0D9FF2B
:1004200002C0DAFF110010B022EF02F080B842EFF4
:1004300002F02E0ED66EF294D596D59A116A1080DF
:1004400042EF02F0600ED626F2948B861332139E92
:1004500080B8138E112A11A642EF02F0D58AD586F4
:10046000FF0ED66EF2941090142A1450000A02E186
:10047000000E146E21EE00F01450D926000EDA2280
:100480001350DF6E8B9608EF02F0162A1650000A02
:1004900002E1000E166E22EE00F01650D926000E74
:1004A000DA22AE50DF6E08EF02F0040000EE00F03A
:1004B000EE6A060EEA62FCD7F19E080E806E000E10
:1004C000816E4F0E826E000E836E000E846E100ED3
:1004D000926E000E936E800E946E000E956E000E5E
:1004E000966E070EC16E8B96200EAC6E130EAF6E1D
:1004F000900EAB6E000E166E176E106A116A126ABD
:10050000136AF80ED56EFF0ED66EF294000E146EBE
:10051000156E1C6A1D6A1E681F6A206A216A200EF9
:100520009D6EA06AAB98AE50AB88F00EF26E1200D2
:10053000ACA2FED7AD6E1200F56EF538070B16E0D3
:10054000FF0F15E0FF0F14E0FF0F13E0FF0F12E0A5
:10055000FF0F11E0FF0F10E0F550FE0BF00AD8B4CA
:10056000010CF550F20AD8B4020C000C020C020C7B
:10057000020C020C010C010C020C55EC02F0040000
:100580001B6A186A196AE00E1A6E04001F5003E015
:100590001F0601E18B84205003E0200601E18B80DF
:1005A000215003E0210601E18B82182AD8B4192AD0
:1005B000D8B41A2A185004E1195002E11A5046E042
:1005C0001450151804E11B50E0E129EF03F0152A3F
:1005D0001550000A02E1000E156E01EE00F01550F4
:1005E000E926000EEA228B94FF0E1F6E8B92FF0EFF
:1005F000216EEFBE12EF03F01C50F00A0EE01B500C
:100600000BE11C509CEC02F01B6E1C501E1804E009
:100610001C501E6E98EC02F01B06EF5098EC02F096
:1006200024EF03F0EF50F80BF80A05E1EF5098ECD7
:1006300002F024EF03F0EF501C6E1E6E98EC02F0F7
:10064000EF509CEC02F01B6EC1EF02F0FF0E98EC35
:1006500002F01B6A186A196AE00E1A6E04001F5035
:1006600003E01F0601E18B84205003E0200601E136
:100670008B80215003E0210601E18B82182AD8B437
:10068000192AD8B41A2A185004E1195002E11A5054
:1006900046E01650171804E11B50E0E192EF03F01A
:1006A000172A1750000A02E1000E176E02EE00F042
:1006B0001750E926000EEA228B90FF0E206E8B92D7
:1006C000FF0E216EEFBE7BEF03F01D50F00A0EE02F
:1006D0001B500BE11D509CEC02F01B6E1D501E18B0
:1006E00004E01D501E6E98EC02F01B06EF5098ECD3
:1006F00002F08DEF03F0EF50F80BF80A05E1EF5030
:1007000098EC02F08DEF03F0EF501D6E1E6E98EC2A
:1007100002F0EF509CEC02F01B6E2AEF03F0FF0E8C
:1007200098EC02F0ABA203D0AB98AE50AB88BFEF11
:0207300002F0D5
:020000040030CA
:0E000000FFFEF3FFFFFFFBFFFFFFFFFFFFFF11
:00000001FF
