:020000040000FA
:040000008A11A22897
:08000800FF00030E8301FE005E
:100010000408FD000B1915288C1A41287D0884005E
:100020007E0E8300FF0E7F0E090020182228051A7D
:100030003F28703081000B11831681128312A101B9
:1000400020143F28603081070B118715A30CA313E0
:10005000051AA317A10AA11D3F2883168116831232
:10006000FF3081000B112010A40A24087C3A031DE4
:100070003B283230A4002408840023088000871124
:100080000A28A60A2608F03A031D4828A030A60030
:10009000260884001A0880000A280A0807388A00FF
:1000A00083167F30810083125C2081208D20AF0178
:1000B000B001B101762008000830850000308600CC
:1000C0004F308700003088000030890083161030E0
:1000D00085000030860080308700003088000030C6
:1000E000890007309F008312871108008316203093
:1000F0008C008D01831218121A081816E0308B003C
:10010000080083162030980009309900831290303F
:100110009800A030A600A7000800A001A101A2013C
:10012000A301FF3081000B113230A400A5000800AC
:10013000AC01AD01AE0108008316981C9D28831206
:10014000990008004D206400AB01A801A901E0302E
:10015000AA0064002F080319B128AF03031DB128BA
:10016000071430080319B828B003031DB828071571
:1001700031080319BF28B103031DBF288714A80A3B
:100180000319A90A0319AA0A2808031DCD2829085A
:10019000031DCD282A0803190B2924082506031D51
:1001A000D5282B08031DA9280D29A50A25087C3A66
:1001B000031DDC283230A500250884000710FF301D
:1001C000AF008710FF30B100801BFB282C08F03AED
:1001D0000319F8282B08031DF7282C080027AB006B
:1001E0002C082E060319F7282C08AE009C20AB0320
:1001F00000089C200A290008F839F83A031D032951
:1002000000089C200A290008AC00AE009C200008D1
:100210000027AB00A528FF309C20AB01A801A90155
:10022000E030AA0064002F0803191A29AF03031D48
:100230001A290714300803192129B003031D2129A5
:100240000715310803192829B103031D282987142C
:10025000A80A0319A90A0319AA0A2808031D36299E
:100260002908031D36292A08031974292608270698
:10027000031D3E292B08031D12297629A70A2708EA
:10028000F03A031D4529A030A70027088400071174
:10029000FF30B0008710FF30B100801B64292D08AB
:1002A000F03A031961292B08031D60292D08002746
:1002B000AB002D082E06031960292D08AE009C20E6
:1002C000AB0300089C2073290008F839F83A031D95
:1002D0006C2900089C2073290008AD00AE009C200A
:1002E00000080027AB000E29FF309C20981C7B29BA
:0802F00018121A081816A328C1
:100E0000FC007C0E073982070234023402340234BB
:100E10000134013402347C08FE39F03A03190134FC
:0A0E20007C08F23A03190234003492
:02400E00763FFB
:00000001FF
