:020000040000FA
:10000000BDEF00F0BDEF00F0D9CF01F0DACF02F084
:10001000F2B413EF00F09EBA45EF00F001C0D9FF33
:1000200002C0DAFF110010B022EF00F080B842EFFA
:1000300000F02E0ED66EF294D596D59A116A1080E5
:1000400042EF00F0600ED626F2948B861332139E98
:1000500080B8138E112A11A642EF00F0D58AD586FA
:10006000FF0ED66EF2941090142A1450000A02E18A
:10007000000E146E21EE00F01450D926000EDA2284
:100080001350DF6E8B9608EF00F0162A1650000A08
:1000900002E1000E166E22EE00F01650D926000E78
:1000A000DA22AE50DF6E08EF00F0040000EE00F040
:1000B000EE6A060EEA62FCD7F19E080E806E000E14
:1000C000816E4F0E826E000E836E000E846E100ED7
:1000D000926E000E936E800E946E000E956E000E62
:1000E000966E070EC16E8B96200EAC6E130EAF6E21
:1000F000900EAB6E000E166E176E106A116A126AC1
:10010000136AF80ED56EFF0ED66EF294000E146EC2
:10011000156E1C6A1D6A1E681F6A206A216A200EFD
:100120009D6EA06AAB98AE50AB88F00EF26E1200D6
:10013000ACA2FED7AD6E1200F56EF538070B16E0D7
:10014000FF0F15E0FF0F14E0FF0F13E0FF0F12E0A9
:10015000FF0F11E0FF0F10E0F550FE0BF00AD8B4CE
:10016000010CF550F20AD8B4020C000C020C020C7F
:10017000020C020C010C010C020C55EC00F0040006
:100180001B6A186A196AE00E1A6E04001F5003E019
:100190001F0601E18B84205003E0200601E18B80E3
:1001A000215003E0210601E18B82182AD8B4192AD4
:1001B000D8B41A2A185004E1195002E11A5046E046
:1001C0001450151804E11B50E0E129EF01F0152A45
:1001D0001550000A02E1000E156E01EE00F01550F8
:1001E000E926000EEA228B94FF0E1F6E8B92FF0E03
:1001F000216EEFBE12EF01F01C50F00A0EE01B5012
:100200000BE11C509CEC00F01B6E1C501E1804E00F
:100210001C501E6E98EC00F01B06EF5098EC00F09E
:1002200024EF01F0EF50F80BF80A05E1EF5098ECDD
:1002300000F024EF01F0EF501C6E1E6E98EC00F001
:10024000EF509CEC00F01B6EC1EF00F0FF0E98EC3D
:1002500000F01B6A186A196AE00E1A6E04001F503B
:1002600003E01F0601E18B84205003E0200601E13A
:100270008B80215003E0210601E18B82182AD8B43B
:10028000192AD8B41A2A185004E1195002E11A5058
:1002900046E01650171804E11B50E0E192EF01F020
:1002A000172A1750000A02E1000E176E02EE00F046
:1002B0001750E926000EEA228B90FF0E206E8B92DB
:1002C000FF0E216EEFBE7BEF01F01D50F00A0EE035
:1002D0001B500BE11D509CEC00F01B6E1D501E18B6
:1002E00004E01D501E6E98EC00F01B06EF5098ECD9
:1002F00000F08DEF01F0EF50F80BF80A05E1EF5038
:1003000098EC00F08DEF01F0EF501D6E1E6E98EC32
:1003100000F0EF509CEC00F01B6E2AEF01F0FF0E96
:1003200098EC00F0ABA203D0AB98AE50AB88BFEF17
:0203300000F0DB
:020000040030CA
:0E000000FFFEF3FFFFFFFBFFFFFFFFFFFFFF11
:00000001FF
