:020000040000FA
:060000008A110A129B2880
:08000800FF00030E8301FE005E
:100010000408FD000B1915288C1A41287D0884005E
:100020007E0E8300FF0E7F0E090020182228051A7D
:100030003F28D03081000B11831681128312A10159
:1000400020143F28C03081070B110614A30CA31302
:10005000051AA317A10AA11D3F2883168116831232
:10006000FF3081000B112010A40A24087C3A031DE4
:100070003B283230A40024088400230880000610A6
:100080000A28A60A2608F03A031D4828A030A60030
:10009000260884001A0880000A280A0807388A00FF
:1000A00083167F30810072308F000F1D5528831218
:1000B00060207A208620AF01B001B1016F200800D6
:1000C00007308500213086008316F0308500D63059
:1000D00086009B0107309C008312061008008316DF
:1000E00020308C008D01831218121A081816E03087
:1000F0008B0008008316203098000330990083128B
:1001000090309800A030A600A7000800A001A1012F
:10011000A201A301FF3081000B113230A400A50021
:100120000800AC01AD01AE0108008316981C9628AA
:100130008312990008004D206400AB01A801A901B9
:10014000E030AA0064002F080319AA28AF03031D9A
:10015000AA28051530080319B128B003031DB128DA
:10016000051431080319B828B103031DB8288514F4
:10017000A80A0319A90A0319AA0A2808031DC628F0
:100180002908031DC6282A0803190429240825065E
:10019000031DCE282B08031DA2280629A50A250821
:1001A0007C3A031DD5283230A500250884000511AE
:1001B000FF30AF008510FF30B100801BF4282C0801
:1001C000F03A0319F1282B08031DF0282C0800270A
:1001D000AB002C082E060319F0282C08AE00952041
:1001E000AB030008952003290008F839F83A031DED
:1001F000FC280008952003290008AC00AE009520DB
:1002000000080027AB009E28FF309520AB01A80115
:10021000A901E030AA0064002F0803191329AF03D5
:10022000031D13290515300803191A29B003031DEE
:100230001A290514310803192129B103031D2129A5
:100240008514A80A0319A90A0319AA0A2808031D74
:100250002F292908031D2F292A0803196D2926088B
:100260002706031D37292B08031D0B296F29A70A11
:100270002708F03A031D3E29A030A7002708840074
:100280000510FF30B0008510FF30B100801B5D29E4
:100290002D08F03A03195A292B08031D59292D0856
:1002A0000027AB002D082E06031959292D08AE0092
:1002B0009520AB03000895206C290008F839F83A1E
:1002C000031D6529000895206C290008AD00AE00CB
:1002D000952000080027AB000729FF309520981CC7
:0A02E000742918121A0818169C2839
:100E0000FC007C0E073982070234023402340234BB
:100E10000134013402347C08FE39F03A03190134FC
:0A0E20007C08F23A03190234003492
:02400E005C3F15
:00000001FF
